:020000040800F2
:1000000048360020E1010008C96B0008C93C00081F
:10001000C55E00085B0500087D9B0008000000002D
:10002000000000000000000000000000490100087E
:10003000AB230008000000008D0100087D9500083A
:10004000FB010008FB010008FB010008FB010008A0
:10005000FB010008FB010008FB010008FB01000890
:10006000FB010008FB010008FB010008FB01000880
:10007000FB010008FB010008FB010008FB01000870
:10008000FB010008FB010008FB010008FB01000860
:10009000FB010008FB010008FB010008FB01000850
:1000A000FB010008FB010008FB010008FB01000840
:1000B000FB010008FB010008FB010008FB01000830
:1000C000FB010008FB010008FB010008A5840008F3
:1000D000FB010008FB010008FB010008FB01000810
:1000E000FB010008FB010008FB010008FB01000800
:1000F000FB010008FB010008FB010008FB010008F0
:10010000FB010008FB010008FB010008FB010008DF
:10011000FB0100080198000845960008FB01000853
:10012000FB010008FB010008FB0100081523000883
:10013000DFF810D000F0BCF90048004715B4000803
:10014000AFF3008048360020224B19680868B0E8F9
:10015000F00F80F30988BFF36F8F4FF0000080F33A
:1001600011884EF00D0E7047000000000648006830
:10017000006880F3088862B661B6BFF34F8FBFF3A3
:100180006F8F00DF00BF00BF08ED00E0EFF30980D4
:10019000BFF36F8F0F4B1A6820E9F00F106008B59E
:1001A0004FF0500080F31188BFF34F8FBFF36F8F74
:1001B0000BF018FD4FF0000080F31188BDE80840F7
:1001C00019680868B0E8F00F80F30988BFF36F8FF3
:1001D000704700BF04000020EFF305807047000067
:1001E0000648804706480047FEE7FEE7FEE7FEE7D1
:1001F000FEE7FEE7FEE7FEE7FEE7FEE7FD95000807
:10020000310100082DE9F05F0546002092469B462B
:1002100088460646814640241BE02846414647461C
:10022000224600F020F853465A46C01A914110D396
:1002300011461846224600F0CFF82D1A67EB010848
:100240004F4622460120002100F0C6F817EB0009B6
:100250004E41201EA4F10104DFDC484631462A4607
:100260004346BDE8F09F202A04DB203A21FA02F041
:100270000021704721FA02F3D040C2F120029140E0
:1002800008431946704740EA01039B0703D009E081
:1002900008C9121F08C0042AFAD203E011F8013B72
:1002A00000F8013B521EF9D270472DE9FE4F81EA5A
:1002B000030404F0004421F0004100944FF0000BCF
:1002C00023F0004350EA01045ED052EA03045BD0FD
:1002D000C3F30A54C1F30A552C44A4F2F334019435
:1002E000A0FB0254C1F3130141F48011C3F31303C3
:1002F00043F4801301FB024400FB034E840A970A77
:1003000044EA815447EA8357A4FB076802958D0AA3
:1003100005FB07854FEA932C04FB0C542705029D2F
:100320004FEA065847EA1637B5EB08056EEB070C9F
:10033000870E920E47EA811742EA8312A7FB020159
:10034000B6EB0B0164EB00042B0D43EA0C335E1893
:1003500044EB1C50DA465146E7FB0201C5F3130497
:100360004FEA0B3343EA14534FEA0432019C43EA49
:100370000603A4F10C040294009CCDE900B400F043
:1003800049F803B0BDE8F08F00200146F9E70EB54B
:1003900040F2334102910021CDE900110A460B469B
:1003A00000F038F803B000BD30B5041E71F1000450
:1003B00004DB4FF00044404264EB0101141E73F172
:1003C000000405DB1C464FF00043524263EB04037C
:1003D000994208BF904230BD202A04DB203A00FA3F
:1003E00002F1002070479140C2F1200320FA03F38C
:1003F00019439040704710B5141E73F1000408DAD9
:10040000401C41F1000192185B411A4301D120F0D8
:10041000010010BD2DE9F04D92469B4611B1B1FA95
:1004200081F202E0B0FA80F220329046FFF7D4FF6A
:1004300004460F4640EA0A0041EA0B0153465A4679
:10044000084313D0114653EA010019D0C8F1400205
:100450005046FFF708FF05460E46504659464246AD
:10046000FFF7BAFF084305D0012004E020463946D3
:10047000BDE8F08D0020054346EAE0762C43374383
:100480000A986305E40AA0EB08000022FD0A44EA8A
:1004900047540A3002D500200146E9E7010510194A
:1004A0006941DDE9084500196941BDE8F04DA2E761
:1004B000064C074D06E0E06840F0010394E80700B1
:1004C00098471034AC42F6D3FFF736FE18C0000848
:1004D00038C0000870B58D1810F8014B14F00302F5
:1004E00001D110F8012B231106D110F8013B03E0D4
:1004F00010F8016B01F8016B521EF9D1ABB110F885
:10050000012B04F00C048A1A0C2C03D0A2EB8412E9
:100510009B1C08E010F8014BA2EB0422F8E712F84C
:10052000014B01F8014B5B1EF9D5A942D4D3002041
:1005300070BD70B50546002009E06E5CB4420AD17A
:10054000401CC0B2491CB1FBF2F402FB14111C5C4C
:10055000002CF2D170BD002070BDFEE72DE9F04106
:100560000F4605461C4616461146384602F092FBD9
:10057000012804D12068642801D2401C08E03146DB
:10058000384602F087FB0028206802D140B1401EA7
:100590002060642801D1012028702068002801D142
:1005A00000202870BDE8F0812DE9F04702783F482F
:1005B00000253F4C4FF47A77022A15D0122A13D027
:1005C000102A11D03B4B4FF48031032A17D0042A54
:1005D00018D0052A1AD0062A1CD0072A1ED0082AAD
:1005E00020D0012A25D028E0A16F491CA167B9427B
:1005F00023D3016881F47E610160A5671DE0026874
:100600001B7E12E0026893F850300EE0026893F807
:1006100088300AE0026893F8C03006E0026893F878
:10062000F83002E0026893F83031D9400A430260A2
:1006300003E0016841F480510160DFF87C801B4ECB
:100640004FF4004998F800000C3E4FF4804A08B17E
:1006500012280DD1E06F401CE067B84208D349462C
:10066000304602F01CFB5146304602F018FBE567AD
:1006700098F800000F2817D1E06F401CE067B842DF
:1006800012D34946304602F00AFB5146304602F08A
:1006900006FB4FF40051304602F001FB4FF480514D
:1006A000304602F0FCFAE567BDE8F0870C1801401F
:1006B00098050020F4250020580000202DE9F05F67
:1006C000DFF8DC814FF48041404602F0E3FA754FD9
:1006D000754C0125002620B92068462801D2401C0F
:1006E00009E04FF48041404602F0D4FA0128206826
:1006F00002D138B1401E2060462801D010B102E07E
:100700003D7000E03E704FF40051404602F0C2FAE6
:10071000664F674C20B92068462801D2401C09E08A
:100720004FF40051404602F0B5FA0128206802D18A
:1007300038B1401E2060462801D010B102E03D7063
:1007400000E03E704FF48061404602F0A3FA594F3A
:10075000594C20B92068462801D2401C09E04FF4CA
:100760008061404602F096FA0128206802D138B133
:10077000401E2060462801D010B102E03D7000E02C
:100780003E704FF4004B5946C146404602F082FA93
:100790004A4F4B4C4FF4967820B92068642801D218
:1007A000401C08E05946484602F074FA01282068C7
:1007B00002D130B1401E2060404501D13D7001E0C2
:1007C00000B93E704FF4006A5146484602F062FAA2
:1007D0003C4F3D4C20B92068642801D2401C08E001
:1007E0005146484602F056FA0128206802D130B13D
:1007F000401E2060404501D13D7001E000B93E70CF
:10080000334C324B5A4621463248FFF7A7FE2F4B56
:100810004FF480421B1D21462F48FFF79FFE2B4BB4
:100820006214083321462D48FFF798FE274BA21487
:100830000C3321462A48FFF791FE244B52461033D1
:1008400021462848FFF78AFE204B22151433214603
:100850002548FFF783FE1D4B6215183321462348B8
:10086000FFF77CFE194BA2151C3321462048FFF7E9
:1008700075FE164B8022203321461E48FFF76EFE80
:10088000124B4022243321461B48FFF767FE2146C6
:10089000BDE8F05F0D4B194828332022FFF75EBEFC
:1008A000001401408C050020180200208E05002055
:1008B000200200208D0500201C0200208F05002052
:1008C000240200209005002028020020B40500200A
:1008D000002001402C0200202D0200202E020020CA
:1008E0002F020020300200203102002032020020BE
:1008F000330200203402002035020020360200209E
:100900002DE9F043A9B01C4617460E460546FE4B9E
:100910000DF18C080FCB88E80F0005F049F8142082
:10092000A8470AA9262005F086F8D8B1F7A10EA895
:100930000AF0EAFA0EA807F085F81FA804F09DFF58
:10094000C8B1F7A10EA80AF0DFFA0EA807F07AF8EE
:100950001FA805F08BF802001CD0F5A10EA80AF024
:10096000D3FA1BE09DF828309DF82920F3A10EA8AA
:100970000AF0CAFADEE79DF87F109DF87E00CDE907
:1009800000019DF87D309DF87C20F2A10EA80AF0B0
:10099000BBFADAE7F3A10EA80AF0B6FA0EA807F040
:1009A00051F81FAB23AA0121602004F087FF002823
:1009B00060D10AA9012005F01EF8002844D19DF855
:1009C0002C000DF108089DF82F309DF82E209DF881
:1009D0002D1088E80F009DF82B109DF82A00CDE916
:1009E00000019DF829309DF82820E0A10EA80AF00A
:1009F0008BFA0EA807F026F89DF834009DF83730E2
:100A00009DF836209DF8351088E80F009DF83310CA
:100A10009DF83200CDE900019DF831309DF830207D
:100A2000D2A10EA80AF070FA0EA807F00BF89DF8F4
:100A30002800B04205D08DF800606946012005F01D
:100A4000D4F8D5A006F0FEFF002606960796089675
:100A500006A90120099605F0C8F81FAB23AA0221B8
:100A6000602004F02BFF58B1CCA10EA80AF04CFA7C
:100A70000EA870E0C9A10EA80AF046FA0EA8B2E1CD
:100A80000AA9022004F0B7FF002866D19DF82C00C7
:100A90000DF108089DF82F309DF82E209DF82D109F
:100AA00088E80F009DF82B109DF82A00CDE9000181
:100AB0009DF829309DF82820ACA10EA80AF024FA50
:100AC0000EA806F0BFFF9DF834009DF837309DF862
:100AD00036209DF8351088E80F009DF833109DF8FA
:100AE0003200CDE900019DF831309DF830209FA102
:100AF0000EA80AF009FA0EA806F0A4FF9DF8280037
:100B000046EA006000909DF82900009941EA004003
:100B100000909DF82A00009941EA002000909DF87D
:100B20002B000099084300906420474300980197E8
:100B30003946B8420ED08DF80B10080A8DF80A001D
:100B4000080C8DF80900080E8DF8080002A9022093
:100B500005F04BF890A006F075FF1FAB23AA032108
:100B6000602004F0ABFE002884D10AA9032004F021
:100B700042FF00287ED19DF82C0002AE9DF82F3058
:100B80009DF82E209DF82D1086E80F009DF82B1063
:100B90009DF82A00CDE900019DF829309DF8282014
:100BA00072A10EA80AF0B0F90EA806F04BFF9DF84E
:100BB00034009DF837309DF836209DF8351086E8D2
:100BC0000F009DF833109DF83200CDE900019DF82B
:100BD00031309DF8302065A10EA80AF095F90EA8D5
:100BE00006F030FF9DF83700FF287CD19DF83600D5
:100BF000FF28FAD19DF83500FF28F6D19DF8340082
:100C0000FF2870D19DF83300FF286CD19DF8320089
:100C1000FF2868D16848D0F8D412FF2913D1D0F842
:100C2000D012FF290FD1D0F8CC12FF290BD1D0F868
:100C3000C812FF2907D1D0F8C412FF2903D1D0F878
:100C4000C002FF284FD022788DF8182094F804C0F5
:100C50008DF819C0237A8DF81A30217B8DF81B107E
:100C6000207C8DF81C00277D8DF81D70FF268DF8E7
:100C70001E6000E0B9E04FF080088DF820804FF052
:100C800007094FF069088DF81F908DF8218094F8BE
:100C900000808DF8228094F804808DF8238094F8E9
:100CA00008808DF8248094F80C808DF8258094F8C5
:100CB00010808DF82680247DCDE900318DF8274005
:100CC000CDE90207CDE90469634628A10EA80AF020
:100CD0001BF90EA806F0B6FE9DF827309DF82620D9
:100CE0009DF8251000E078E09DF8240002AE86E82B
:100CF0000F009DF823109DF82200CDE900019DF81A
:100D000021309DF8202059E0A8BF00080D0A53416A
:100D10004B3A202D2D2D2D20202D2D2D2D00000086
:100D20000D0A434E3A202D2D2D2D2D2D2D2D000059
:100D30000D0A43533A202564000000000D0A534178
:100D40004B3A203078253032582C203078253032FC
:100D5000580000000D0A434E3A2025782578257862
:100D6000257800000D0A43533A202D000D0A253046
:100D70003258202530325820253032582025303244
:100D8000582025303258202530325820253032580E
:100D900020253032580000000D0A00000D0A2D2DCC
:100DA000202D2D202D2D202D2D202D2D202D2D20C1
:100DB0002D2D202D2D000000F4250020AFF2540130
:100DC0000EA80AF0A1F80EA806F03CFE06A9032022
:100DD00004F00BFF0EA006F035FEAFF2440006F063
:100DE00031FEAFF24C0006F02DFEAFF2540006F0DB
:100DF00029FEAFF25C0006F025FEAFF2640006F0BB
:100E000021FE0220A84704F0BDFD29B0BDE8F08313
:100E10000D0AC7E0EFE8F1E0ED20EDEEE2FBE9209E
:100E2000EAEBFEF7000000002DE9F0478446A948F0
:100E30000D46A749047808461746CA7B037C86B04E
:100E4000803032B9012C04D11BB982680AB1521E1C
:100E50008260A14ACC738E7C147856B9012C08D1DB
:100E60003BB982680A2A02D2521C826000E00A2240
:100E7000826089468C748046C1688068974E0124E0
:100E8000814274D0DFF858A2C8B10A281CD00123CF
:100E900007EB00103246194609F0F2FBD8F80800BB
:100EA000C11F022918D205EB800002A950F8040CDA
:100EB00002F00CFF04230B22012102A81DE00123F4
:100EC000864A1946604604E0012307F1A000834AE0
:100ED000194609F0D5FB14E0092804D004230B229D
:100EE000012180A009E0DAF8E0024FF004034FF09E
:100EF0000B024FF0010110B37CA0CDE9006409F0B2
:100F0000EDFBD8F80800754A092807EB00104FF0F0
:100F100001034FF0020100F110002BD209F0B0FBE9
:100F2000D8F80800811F02290BD255F8200002A929
:100F300002F0CCFE04230B22022102A812E06DA0D5
:100F4000DBE7082804D004230B22022165A009E076
:100F5000DAF8E0024FF004034FF00B024FF0020109
:100F600030B162A0CDE9006409F0B8FB04E00DE007
:100F700060A0F7E709F084FBD8F808004746A0B165
:100F80005FF00F0009F0D0FBB868F860D8F80800EF
:100F90004746DFF868A1401E4FF00008092843D2F9
:100FA00099F81310484611B13EE01020EAE79AF88C
:100FB0000010012938D1017CD1B189F81080CDE928
:100FC000006401230A2219464DA009F087FBCDE9F0
:100FD000006401230F22194649A009F07FFBB8687D
:100FE000411E052920D899F81110012917D01BE0BE
:100FF00089F81040CDE9006401230A22194641A076
:1010000009F06CFBCDE9006401230F2219463EA0D4
:1010100009F064FBC7F8108089F8118004E005EB43
:101020008000396940F8041C9AF8001089F8131000
:1010300099F81000564601282CD1B868012810D024
:1010400002280ED003280CD004280AD0052808D086
:10105000062806D007280DD008280FD0092815D05B
:1010600018E01B4BFF221133002103F17F0002F037
:10107000D9FE0FE005F11800642203E005F11C0021
:1010800041F28832002105F0BBFD03E005F12000AC
:1010900005F018FE3078012816D1B8680A2813D157
:1010A000BA220F49194807F0C7FCC7E9028418495A
:1010B00081F800801749C1F8008017490C60174972
:1010C00086F80080C1F8008006B0BDE8F087000017
:1010D000980500208C0500208D050020BDB5000876
:1010E000F42500202020202000000000C2EAEB2090
:1010F00000000000CEF2EAEB000000008E050020A8
:1011000020000000180000001900000000F8070887
:101110003C020020700000209405002020020020E6
:101120002DE9FF410E4684460021092803D90320FA
:1011300004B0BDE8F081314CE278DFF8C48020468D
:10114000406800254FF4FA77012A06D023461B7821
:10115000022A1AD0032A2ED04DE00121A1700B21C2
:1011600021704FF0FF31C4E906116570254A401C1B
:10117000606003978DE8050132460023604607F062
:101180005BFDA0682061022012E06069401C606184
:10119000B0F57A7F03D165612069401E206103208C
:1011A0002169012904D9032B03D16178012900D1D8
:1011B000E07001211FE0032B03D1D4E906231A4379
:1011C0000AD13B460E4A0F4907F080FCA570E57036
:1011D0000321207803280ED1D4E9060210430AD057
:1011E000084BCDE9008730460021626807F0D4FC47
:1011F000A570E570022108469AE700003809002032
:10120000840000209422002000210A4640F821207A
:10121000491CC9B20829F9D37047000070B50446CB
:101220000D462078022802D0207812287ED1FD4871
:10123000007801281FD1FC480078E0B9FB482A4615
:101240000168012001F0CEF910202070F848F7491C
:10125000006809680844F7490860F44900200860FC
:10126000F3490860F448F549D0F86801C0EB001074
:10127000800008608CE1F248007801281FD1F14815
:101280000078E0B9E9482A460168012001F0AAF98E
:1012900010202070E648E549006809680844E549DF
:1012A0000860E24900200860E1490860E248E3493B
:1012B000D0F86801C0EB00108000086068E1E248E7
:1012C000007801281FD1E1480078E0B9D7482A46C4
:1012D0000168012001F086F910202070D448D3491C
:1012E000006809680844D3490860D04900200860B4
:1012F000CF490860D048D149D0F86801C0EB001050
:101300008000086044E1D2480078012821D1D1480A
:101310000078F0B9C5482A460168012001F062F959
:1013200010202070C248C149006800E060E10968EF
:101330000844C0490860BD4900200860BC490860F5
:10134000BD48BE49D0F86801C0EB001080000860BD
:101350001EE1C148007801281FD1C0480078E0B9DB
:10136000B2482A460168012001F03CF910202070A3
:10137000AF48AE49006809680844AE490860AB4907
:1013800000200860AA490860AB48AC49D0F8680161
:10139000C0EB001080000860FAE0B1480078012836
:1013A0001FD1B0480078E0B9A0482A460168012062
:1013B00001F018F9102020709D489C4900680968C8
:1013C00008449C49086099490020086098490860D1
:1013D00099489A49D0F86801C0EB00108000086075
:1013E000D6E0A148007801281FD1A0480078E0B9D4
:1013F0008E482A460168012001F0F4F81020207080
:101400008B488A490068096808448A490860874906
:10141000002008608649086087488849D0F868013C
:10142000C0EB001080000860B2E09148007801280D
:101430001FD190480078E0B97C482A460168012015
:1014400001F0D0F8102020707948784900680968C8
:1014500008447849086075490020086074490860AC
:1014600075487649D0F86801C0EB0010800008602C
:101470008EE08148007801281FD180480078E0B9CB
:101480006A482A460168012001F0ACF8102020705B
:101490006748664900680968084466490860634906
:1014A000002008606249086063486449D0F8680118
:1014B000C0EB0010800008606AE0714800780128E5
:1014C0001FD170480078E0B958482A4601680120C9
:1014D00001F088F8102020705548544900680968C8
:1014E0000844544908605149002008605049086088
:1014F00051485249D0F86801C0EB001080000860E4
:1015000046E06148007801281FD160480078E0B9C2
:1015100046482A460168012001F064F81020207036
:1015200043484249006809680844424908603F4905
:10153000002008603E4908603F484049D0F86801F3
:10154000C0EB00108000086022E0514800780128BC
:101550001ED150480078D8B934482A460168012085
:1015600001F040F8102020703148304900680968C7
:101570000844304908602D49002008602C49086063
:101580002D482E49D0F86801C0EB0010800008609B
:10159000244825490078087029482A4900780870AD
:1015A00029482A490078087029482A490078087093
:1015B00029482A490078087029482A490078087083
:1015C00029482A490078087029482A490078087073
:1015D00029482A490078087029482A490078087063
:1015E00029482A490078087029482A490078087053
:1015F0002078102808D02078012805D020780328EA
:101600000FDB20780E280CDC06480078012845D135
:10161000052006F08DFC20701F4800681E49002040
:101620000860D4E03002002053060020680000204B
:101630006C00002060000020F425002074000020D1
:1016400031020020540600203202002055060020FE
:1016500033020020560600203402002057060020E6
:1016600035020020580600203602002059060020CE
:10167000370200205A060020380200205B060020B6
:10168000390200205C0600203A0200205D0600209E
:101690003B0200205E0600200C180140FE48007846
:1016A000012809D1062006F043FC2070FB480068A1
:1016B000FA49002008608AE0F9480078012809D139
:1016C000072006F035FC2070F4480068F34900203C
:1016D00008607CE0F3480078012809D1082006F072
:1016E00027FC2070ED480068EC49002008606EE09F
:1016F000ED480078012809D1092006F019FC207076
:10170000E6480068E5490020086060E0E7480078A6
:10171000012809D10A2006F00BFC2070DF48006880
:10172000DE490020086052E0E1480078012809D134
:101730000B2006F0FDFB2070D8480068D749002038
:10174000086044E0DB480078012809D10C2006F04D
:10175000EFFB2070D1480068D0490020086036E0D7
:10176000D5480078012809D10D2006F0E1FB207052
:10177000CA480068C9490020086028E0CF480078BE
:10178000012809D10E2006F0D3FB2070C348006861
:10179000C249002008601AE0C9480078012809D130
:1017A0000F2006F0C5FB2070BC480068BB49002034
:1017B00008600CE0C3480078012808D1102006F02A
:1017C000B7FB2070B5480068B44900200860BE48E7
:1017D0000078012862D1207801285FD020780F2876
:1017E0005CD02078F0B3B9480068B84920F0020016
:1017F00008600846006820F0080008600846006895
:1018000020F0200008600846006820F08000086092
:101810000846006820F4007008600846006820F45C
:10182000006008600846006820F400500860084620
:10183000006820F4004008600846006820F400308A
:1018400008600846006820F4002008600846006828
:1018500020F4001008600846006820F400000860CA
:10186000084600E01AE0006820F0007008600846B2
:10187000006820F0006008600846006820F0005012
:101880000860864800684EF21F01084083490860DE
:10189000012020708E494FF4FA6008608A48007871
:1018A00001280ED120780F280BD18A49002008602A
:1018B0007A4800684CF21F0108407849086000200F
:1018C00020708348006820B1814881490068401E2B
:1018D00008607D480078012811D17D48006870B902
:1018E000207801280BD1002020706C4800684EF24F
:1018F0001F01084069490860774900200860207886
:1019000028B120780F2802D0207812284FD17348B0
:101910000078B8B972480078012813D16D48714930
:10192000006888420BD27048D0F8E40200EBC00196
:1019300001EB00106749096801EB800000E069488D
:10194000644908606648654900780870674800780F
:1019500048BB67480078012825D16348D0F8E402E5
:1019600000EBC00101EB00105A490968B1EB800F90
:101970000BD35D48D0F8E40200EBC00101EB00108E
:1019800054490968A1EB800000E00020514908603B
:101990000846006838B900202070404800683F4978
:1019A00000F01F0008605248504900780870207805
:1019B0000F2802D0207811286CD14E480078A8B9A1
:1019C0004D480078012811D14248006840B90020F4
:1019D000207032480068314900F01F00086005E0BF
:1019E0004648007810B945490120087042484149ED
:1019F00000780870374801680120FFF791FB4049E3
:101A000008704048007801281AD10846007801285B
:101A100016D111202070214800224FF400410C38CB
:101A200001F041F91D4800224FF480410C3801F0CB
:101A30003AF91A4800224FF400510C3801F033F9FA
:101A400030480078012819D12D480078022815D196
:101A50002D4820490068096808441F4908602A4940
:101A6000002008601B4908601F482849D0F8680119
:101A7000C0EB001080000860102020702148007822
:101A8000012866D11E480078032862D11149002040
:101A900008603DE061E00000310200200C180140C8
:101AA00032020020330200203402002035020020E0
:101AB00036020020370200203802002039020020C0
:101AC0003A0200203B0200202F020020D400002018
:101AD0004C060020900000206000002050060020EE
:101AE0002C0200203C860100F42500205106002035
:101AF0002D020020520600202E0200203B0900206B
:101B00005F060020600600206C00002074000020AA
:101B10001248006898B111481149006808600F49DF
:101B2000002008600F4908600F481049D0F868018C
:101B3000C0EB0010800008601020207003E000203F
:101B400020700849086000224FF40051084801F055
:101B5000AAF8084808490078087070BD6C00002099
:101B60006000002090000020F42500207400002078
:101B7000001801405F060020600600202DE9F043B8
:101B80000C46B049AE4D85B00A7829462B79497983
:101B900033B9012A04D119B96B6D0BB15B1E6B65AA
:101BA0002A71A94AAB79127853B9012A08D139B9F7
:101BB000696D0F2902D2491C696500E00F21696532
:101BC000AA71D5E91512A14F01268A4271D0DFF81A
:101BD0008082E9B10F291FD008EB011001233A469A
:101BE000194608F04DFD686D03281DD006281BD04E
:101BF000092819D00C2817D004EB800002A950F84E
:101C0000040C02F063F804230B22012102A819E05E
:101C100001238E4A194604E08D480123F0308B4A97
:101C2000194608F02DFD11E004EB800050F8040C7B
:101C300020B101282BD002282ED007E004230B224C
:101C4000012184A0CDE9007608F048FD686D7F4A47
:101C50000E2808EB00104FF001034FF0020100F1D5
:101C600010003AD208F00CFD686D022819D0052842
:101C700017D0082815D00B2813D054F8200002A93B
:101C800002F024F804230B22022102A816E0042308
:101C90000B22012171A0D5E704230B22012171A0A1
:101CA000D0E754F8200028B101280CD002280FD02A
:101CB00015E01BE004230B22022166A0CDE900768B
:101CC00008F00CFD0BE004230B22022163A0F5E7D2
:101CD00004230B22022163A0F0E708F0D1FC686D19
:101CE00078B10F2008F020FD686DA865686DDFF8F9
:101CF0007C81401E4FF000090E281DD2E87910B1FA
:101D00001AE01020EEE798F80000012814D1687955
:101D1000D0B185F80590CDE9007601230A22194655
:101D200053A008F0DBFC01230F22194650A000BF8E
:101D3000CDE9007608F0D2FC98F80000E8716879E7
:101D4000474601280ED05DE06E71CDE90076012393
:101D50000A22194647A008F0C1FC01230F221946A8
:101D600045A0E5E7686D01281AD002281CD0032899
:101D70001CD004281DD005281ED0062820D00728F6
:101D800021D0082823D0092824D00A2825D00B28C0
:101D900026D00C2827D00D282AD00E282BD031E0B1
:101DA0001022052120462BE0201D07E004F1080049
:101DB0001BE004F10C0008E004F1100009221EE011
:101DC00004F1140011E004F11800642217E004F19A
:101DD0001C00F3E704F1200007E004F12400F4E71D
:101DE00004F12800EAE704F12C0000F011FB09E0FF
:101DF00004F13000E9E704F1340042F20F720021EF
:101E000004F0FEFE3878012816D1686D0F2813D132
:101E1000BA221A491A4806F00FFEC5E91596194963
:101E200081F800901849C1F8009018490E601849CF
:101E300087F80090C1F8009005B0BDE8F08300007D
:101E4000980500208C0500208D050020BDB50008F8
:101E500084020020CEF2EAEB00000000D0E5EBE5C2
:101E600000000000C4EEE720000000008E05002006
:101E7000200000001800000019000000F4250020D8
:101E800000F807083C0200207000002094050020A4
:101E9000200200200A2801D2303000E03730C0B2E2
:101EA000704700002DE9F04F8DB0044618222249FA
:101EB00006A8FEF7E8F918221F4918316846FEF710
:101EC000E2F960680C900C98401E0C902568A5F211
:101ED0006C7505F0030000B90DB9694600E006A96C
:101EE0000C9831F91010681E01EB9000461E40F26C
:101EF0006D1000FB056620891FFA80F84644A6F5A0
:101F0000C646DF3E208A1FFA80F9A08A1FFA80FAAF
:101F1000208B1FFA80FB4FF4616009FB00F73C2027
:101F200000FB0A775F4440F2A320704307EBC01721
:101F300038460DB0BDE8F08FB8BF0008F0B51546C3
:101F40000C4606461F2105982268B15421684A1C98
:101F5000B2FBF5F705FB1727821C4FEA122C27600E
:101F600006F807C027687F1CB7FBF5FC05FB1C774C
:101F70002760F2552268521CB2FBF5F705FB1722C9
:101F800096272260B7542268521CB2FBF5F705FB76
:101F90001722FB272260B7542268521CB2FBF5F7C8
:101FA00005FB1722226000220DE09F5CD4F800C0E0
:101FB00006F80C7027687F1CB7FBF5FC05FB1C7747
:101FC000521C92B227608242EFD3401D83B22A4650
:101FD000304600F0F1FC010A2268B1542168491C26
:101FE000B1FBF5F205FB1211216070542068401C12
:101FF000B0FBF5F105FB11002060F0BD2DE9FC5FA1
:102000001C46174681468A460246384B0020DDF8BA
:1020100030809A1A884167D34FF0000B0420216862
:1020200078542068401CB0FBF8F208FB12002060D6
:1020300007F800B020680190401CB0FBF8F208FBE4
:1020400012002B4D172620600020009024E02A4625
:10205000334648465146FEF7D5F810F0FF0002D04F
:102060000121009101E0009961B1FFF713FF2168A0
:1020700078542068401CB0FBF8FC08FB1C000BF1F6
:10208000010B206091469A460A22002328463146D9
:10209000FEF7B8F805460E460020D5F10A01B0411A
:1020A000D5D30A22002348465146FEF7ABF8C0B20A
:1020B000FFF7F0FE216878542068401CB0FBF8F36D
:1020C00008FB13000BF101012060D0B2FFF7E2FE24
:1020D0002268B8542068401CB0FBF8F308FB1300DA
:1020E0002060491C01983954BDE8FC9F40420F0014
:1020F00000E8764870B5072415684C551468641CD0
:10210000B4FBF3F503FB1544052514600D55146865
:10211000641CB4FBF3F503FB154414600024055D57
:1021200016688D5515686D1CB5FBF3F603FB165547
:10213000641CE4B21560052CF1D370BD2DE9F043A9
:10214000082415684C551468641CB4FBF3F503FBB4
:102150001544002514600D551468A046641CB4FB9A
:10216000F3F503FB154406461A4D002714603C4660
:102170004FF00A09B6FBF5F010F0FF0001D001277F
:1021800000E077B1FFF786FED2F800C001F80C003E
:102190001068401CB0FBF3FC03FB1C00641CE4B2A1
:1021A0001060B6FBF5F005FB1066B5FBF9F5012DE7
:1021B000E0D8F0B2FFF76EFE156848551068401C75
:1021C000B0FBF3F503FB1500641C106001F8084038
:1021D000BDE8F0838096980070B50446012015682C
:1021E00048551068401C10601068B0FBF3F503FB05
:1021F000150010600320156848551068401C1060D9
:102200001068B0FBF3F503FB1500106000200DE033
:10221000255C16688D5515686D1C15601568B5FB35
:10222000F3F603FB16551560451CE8B20328EFDBF7
:1022300070BD00002DE9F043032415684C55146867
:10224000641CB4FBF3F503FB1544002514600D5525
:102250001468A046641CB4FBF3F503FB1544064662
:102260001A4D002714603C464FF00A09B6FBF5F002
:1022700010F0FF0001D0012700E077B1FFF70AFE60
:10228000D2F800C001F80C001068401CB0FBF3FC51
:1022900003FB1C00641CE4B21060B6FBF5F005FB08
:1022A0001066B5FBF9F5012DE0D8F0B2FFF7F2FDAD
:1022B000156848551068401CB0FBF3F503FB15008A
:1022C000641C106001F80840BDE8F0838096980017
:1022D00030B509281DD8092415684C551468641CAC
:1022E000B4FBF3F503FB1544012514600D55146888
:1022F000641CB4FBF3F503FB15441460FFF7CAFD3F
:10230000146808551068401CB0FBF3F103FB110082
:10231000106030BD094810B5006840060CD5002299
:102320000121074800F0BFFC0648016841F4702114
:10233000016005490120087010BD0000004C0040FC
:102340000014014004040240ED03002070B516465D
:10235000DDE9042458B1012808D10025012911D054
:1023600000221946304600F09EFC256070BD012910
:1023700006D000223046BDE87040194600F093BCFC
:102380000122F7E7206802EB8201401C20608842AE
:1023900001D2012200E000221946304600F083FC01
:1023A0002068B0F57A7FE0D870BD70472DE9FE4F08
:1023B00098469246834600252C462E46E94610E074
:1023C0001BF801004F1C01F017FD09F80400B7FBD2
:1023D000FAF10AFB1171641C64B20A2C03DA761C50
:1023E000F6B24645ECD3641E61B2012000290BDB36
:1023F0004A46535C03FB0055491E49B2002903DBE2
:1024000000EB80004000F4E72846BDE8FE8F0000A6
:102410002DE9FC41074635480125354E0078354CFD
:102420004FF00008012809D0C4F8688032480078CD
:10243000012830D0C4F86C80BDE8FC81A06E64280F
:1024400002D2401CA06600E00020A0660028EDD16A
:102450003868022801D3022000E0401C386020B117
:10246000012807D002280AD011E004230B22012101
:1024700022A008E004230B22012122A003E0042370
:102480000B22012121A0CDE9006508F027F91020D9
:1024900008F04AF9CAE7E06E642802D2401CE06600
:1024A00000E00020E0660028C6D1386800B1401E78
:1024B000386020B1012807D002280AD011E0042397
:1024C0000B2201210DA008E004230B2201210DA005
:1024D00003E004230B2201210CA0CDE9006508F0E4
:1024E000FDF8BDE8FC41102008F01EB98C05002065
:1024F000BDB50008980500208D050020CEF2EAEB5E
:1025000000000000D0E5EBE500000000C4EEE7208D
:1025100000000000044B0022DA61044A136943F012
:102520000103136101807047282E00200020024023
:102530000068704714480022C168CB06134904D5CF
:10254000CA6942F00202CA611022C3685B0705D55E
:10255000CB6943F00103CB6142F00402C369DB079E
:1025600007D0CB6943F00403CB61C16921F00101BD
:10257000C161A2F58071013901D0C2607047C169A3
:1025800021F00101C161704700200240282E002087
:1025900070B5054600F08CFB0646114C09E0681C3E
:1025A00007D025B100F084FB801BA84201D903208D
:1025B00070BDE068C007F2D1E068800601D5202038
:1025C000E060E068C00605D4E069C00702D1E068B9
:1025D000400703D5FFF7AEFF012070BD002070BD9E
:1025E00000200240FEB515460122084CA2704FF4AF
:1025F000FA76074B074A8DE84C000A460026334618
:1026000006F086FA2E60A670FEBD00003809002094
:1026100084000020942200202DE9F041A4B000277E
:10262000DDF8A88006461F97209721972297087803
:102630008DF87C0008798DF87D00087A8DF87E0091
:10264000087B8DF87F00087C8DF88000087D1D4692
:1026500014468DF8810003F0ABF91420B04706A9A9
:10266000262003F0E8F9D8B189A10AA808F04CFCAB
:102670000AA805F0E7F91BA803F0FFF8C8B189A183
:102680000AA808F041FC0AA805F0DCF91BA803F031
:10269000EDF902001CD087A10AA808F035FC1BE068
:1026A0009DF818309DF8192085A10AA808F02CFC87
:1026B000DEE79DF86F109DF86E00CDE900019DF8F2
:1026C0006D309DF86C2084A10AA808F01DFCDAE7A3
:1026D00085A10AA808F018FC0AA805F0B3F91BABFD
:1026E0001FAA0121602003F0E9F808B180A046E0AC
:1026F00006A9012003F07FF9002842D19DF81C00B3
:102700000DF1080C9DF81F309DF81E209DF81D103E
:102710008CE80F009DF81B109DF81A00CDE9000110
:102720009DF819309DF8182078A10AA808F0ECFB54
:102730000AA805F087F99DF824000DF1080C9DF812
:1027400027309DF826209DF825108CE80F009DF875
:1027500023109DF82200CDE900019DF821309DF85D
:1027600020206AA10AA808F0CFFB0AA805F06AF9A0
:102770009DF818002070122188F800106EA005F056
:1027800061F900241BAB1FAA0221602003F096F818
:1027900008B157A069E006A9022003F02CF900282F
:1027A00065D19DF81C000DF108089DF81F309DF8BB
:1027B0001E209DF81D1088E80F009DF81B109DF845
:1027C0001A00CDE900019DF819309DF818204FA19D
:1027D0000AA808F099FB0AA805F034F99DF824002E
:1027E0009DF827309DF826209DF8251088E80F00D9
:1027F0009DF823109DF82200CDE900019DF82130BD
:102800009DF8202041A10AA808F07EFB0AA805F047
:1028100019F99DF818009DF8191044EA006040EA83
:1028200001409DF81A109DF81B4040EA0120044326
:10283000E1B2C4F30720CDE90001220EC4F307433F
:1028400042A10AA808F060FB0AA805F0FBF874B1E1
:1028500001970297039701A90220049703F0C5F995
:1028600028B928682044286042A005F0EBF836A07B
:1028700005F0E8F834A005F0E5F833A005F0E2F83B
:102880000220B04703F07EF824B0BDE8F0810000DC
:102890000D0A53414B3A202D2D2D2D20202D2D2D6D
:1028A0002D0000000D0A434E3A202D2D2D2D2D2DEB
:1028B0002D2D00000D0A43533A202564000000002E
:1028C0000D0A53414B3A203078253032582C2030B5
:1028D00078253032580000000D0A434E3A20257802
:1028E00025782578257800000D0A43533A202D00DD
:1028F0000D0A2D2D202D2D202D2D202D2D202D2D7F
:10290000202D2D202D2D202D2D0000000D0A2530ED
:102910003258202530325820253032582025303288
:102920005820253032582025303258202530325852
:1029300020253032580000000D0AD1F7E8F2E0ED12
:10294000E020F1EAE8E4EAE00D0A00000D0AC4E53F
:10295000EDE5E320EDE020EAE0F0F2E5202530327D
:102960005820253032582025303258202530325812
:10297000200D0A00C4E5EDFCE3E820F1EDFFF2FBD9
:1029800020F120EAE0F0F2FB0000000000200949FD
:1029900041F288320B681B0702D4401C9042F9D3E5
:1029A00004481430006801040248183000680843E5
:1029B0007047000004280040F0B505464FF6FF7050
:1029C00000240A4F0EE06E5C86EA102637F8166087
:1029D00086EA002080B2491CB1FBF2F602FB161118
:1029E000641CA4B29C42EED3F0BD00005809002044
:1029F0000348016941F08001016100207047000037
:102A0000002002402DE9F05F07461C48884600245C
:102A1000017E15461E46012909D001218146017615
:102A20004CF2503A5046FFF7B3FD18B122E00220B5
:102A3000BDE8F09F012F02D0022F00D00427D3461B
:102A4000DFF83CA0220128463146FDF70CFC81B29C
:102A500008EB4400FFF75EFD5846FFF799FDDAF8F2
:102A6000102022F00102CAF8102018B9641CE4B248
:102A7000BC42E7D3002289F81820D9E7282E00208D
:102A800000200240064900200A69120607D5054ABF
:102A90004A60054A4A600969090600D50120704765
:102AA0000020024023016745AB89EFCD2DE9F84FA7
:102AB000DFF8B8A100220AF1040B144601274FF0F9
:102AC0000F090BF1040E00BF0B6807FA04F52B4049
:102AD000AB4274D1DFF898C14E68A6EB0C0866458E
:102AE0002BD00DDC032E34D005DC36B3012E19D0EB
:102AF000022E2FD11BE0112E16D0122E2AD119E052
:102B0000B8F5881F19D006DCB8F5803F15D0B8F5A8
:102B1000801F1FD111E0B8F5001F0ED0B8F5041FBB
:102B200018D10AE0CA6815E0CA68121D12E0CA6826
:102B300008320FE0CA680C320CE08A682AB1012A18
:102B40004FF0080203D0456104E0042202E0056171
:102B500000E00022FF2B01D8064601E000F1040648
:102B60004FEA840501D9A5F12005D6F800C009FA7D
:102B700005F82CEA080C02FA05F54CEA050CC6F833
:102B800000C04D68ED006AD53A4DAE6946F00106C9
:102B9000AE61AD6924F0030605F001050095364DE0
:102BA00006EB050CDCF80850A6074FEA167809FA80
:102BB00008F6B543314EB04202D100261AE04EE08D
:102BC0002F4EB04201D1012614E02E4EB04201D169
:102BD00002260FE02C4EB04201D103260AE02B4E14
:102BE000B04201D1042605E0294EB04201D10526AC
:102BF00000E0062606FA08F62E43CCF808604D6879
:102C0000DAF80060ED03554601D51E4300E09E430F
:102C10002E604D68AD0305D5DBF800601E43CBF890
:102C2000006004E0DBF800509D43CBF800504D6895
:102C3000DEF80060ED02754601D51E4300E09E43BC
:102C40002E604D68AD0205D5084D0C352E681E432B
:102C50002E6004E0054E0C3635689D433560641CDB
:102C6000102CFFF431AFBDE8F88F000000040140E4
:102C70000000111000100240000001400008014057
:102C8000000C0140001001400014014000180140F8
:102C9000001C01408068084000D001207047C268D5
:102CA0004A40C26070470AB1016170470904FBE7FE
:102CB00001488068704700005C0B00200248816872
:102CC00002781144816070475C0B0020074810B502
:102CD000016841F010010160032000F0AFF800200E
:102CE00000F006F800F03EF8002010BD0020024081
:102CF00000B5014687B00022362000F07FF836206C
:102D000000F070F81348C16941F01001C161C06959
:102D100005A900F010000690684600F033FA00F0B4
:102D200057FA0D494000B0FBF1F10D480B4A491E1E
:102D30000260416040F2E7320021C0E90321816076
:102D400000F026FE10B1012007B000BD044800F0DD
:102D50003BFEF9E70010024040420F000010004027
:102D6000602000201D4808B5816941F001018161A2
:102D7000806900F001000090032000F05FF800225D
:102D800011466FF00B0000F039F8002211466FF089
:102D90000A0000F033F8002211466FF0090000F03D
:102DA0002DF800221146501F00F028F8002211468D
:102DB000101F00F023F800220F21901E00F01EF8D3
:102DC00000220F21501E00F019F80548416821F03B
:102DD000E06141F00071416008BD00000010024058
:102DE0000000014000F01F020121914040098000D5
:102DF00000F1E020C0F8001170470000F0B40E4B65
:102E00001B680C46C3F30223C3F10705042D00D948
:102E10000425191D072901D2002300E0DB1E01262D
:102E200006FA05F1491E214099409E40761E164043
:102E30003143F0BC03F0D4BE0CED00E0064900F0D5
:102E4000070208684FF6FF03184040EA0220034AD1
:102E500010430860704700000CED00E00000FA0528
:102E6000014901200862704700000E4210B52CA4F1
:102E700001461DCC86B08DE81D002DA02D4C0068AC
:102E80000490002004292FD00BDC01292FD0022927
:102E900028D100F0ADF96168C1F38131491C4900C6
:102EA0001EE0082920D010291CD161682268D201B7
:102EB00018D5C1F38342C9031DF8020009D5616822
:102EC00004AAC1F34041515C1B4AB2FBF1F14843F3
:102ED00001E01A4948436168490203D440000321D4
:102EE000B0FBF1F006B010BD00F092F9FAE7226AEB
:102EF000C2F30121012903D1920701D5C803F1E7EB
:102F0000022905D1626A920702D549F64040E9E7F5
:102F10000329E7D121688903E4D50948E2E70000E5
:102F200002030405060708090A0B0C0D0E0F10100A
:102F30000102000000100240001BB70000093D0024
:102F4000366E01002DE9F84305460078354CC00780
:102F500054D0E0690026C00008D4E06940F08050F9
:102F6000E061E069012600F0805000902E48016881
:102F7000C90512D40168804641F480710160FFF7F1
:102F800097FE074605E000BFFFF792FEC01B6428CE
:102F900023D8D8F80000C005F6D5206A10F4407098
:102FA00021D0A98801F4407181421CD0206A1F49B8
:102FB000012220F440700A6000220A602062C007EB
:102FC00011D0FFF775FE074641F2883808E000BFD0
:102FD000FFF76EFEC11B414502D90320BDE8F8830F
:102FE000206A8007F4D5206A696820F4407008439D
:102FF00020621EB1E06920F08050E06128788007EF
:1030000005D56068A96820F44040084360602878CE
:10301000C00605D56068696920F4800008436060D7
:103020000020DBE7001002400070004040044242F4
:103030002DE9F047DFF83C8105460E46D8F8000040
:1030400000F00700B0420CD2D8F8001021F00701C0
:103050003143C8F80010D8F8000000F00700B04273
:1030600063D12878444C800705D56068A96820F0B2
:10307000F000084360602878C00745D068680128E0
:1030800016D02168022816D0890700294DDA616818
:1030900021F0030101436160FFF70AFE69680746FA
:1030A00041F2883001290FD00229814619D027E04A
:1030B00021688903E9E78901E7E700BFFFF7F8FD29
:1030C000C11B494501D918E081466068C0F3810001
:1030D0000128F3D118E000BFFFF7EAFDC11B494505
:1030E0000BD86068C0F381000228F5D10CE000BF66
:1030F000FFF7DEFDC11B494502D90320BDE8F0877B
:10310000606810F00C0FF3D1D8F80010404601F0C1
:103110000701B1420BD9016821F007013143016079
:10312000006800F00700B04201D00120E6E72878EF
:10313000400705D56068E96820F4E06008436060F6
:103140002878000706D56068296920F4605040EAB5
:10315000C100606000F05CF86168084AC1F30311C7
:10316000515CC840064908600020FFF7C1FD0020FF
:10317000C4E700000020024000100240E0BE00084A
:10318000000000200F2202600C4A536803F0030382
:103190004360536803F0F0038360536803F4E06313
:1031A000C36052684FF4E06303EAD202026104484C
:1031B000006800F00700086070470000001002403F
:1031C0000020024001480068704700000000002015
:1031D0000448054900684968044AC1F30221515C6A
:1031E000C84070470000002000100240F0BE0008F8
:1031F0000448054900684968044AC1F3C221515C8A
:10320000C84070470000002000100240F0BE0008D7
:1032100013A185B00FC98DE80F0015A0154A0068ED
:103220000490516801F00C00042804D0082804D050
:10323000114805B070471148FBE7C1F38343C90348
:103240001DF8030009D5516804AAC1F34041515C3F
:103250000A4A5043B0FBF1F0EBE709494843E8E77D
:1032600002030405060708090A0B0C0D0E0F1010C7
:10327000010200000010024000127A00001BB7009B
:1032800000093D002DE9F84F04460078B94DC0070C
:1032900048D06868C0F38100012807D06868C0F38F
:1032A0008100022809D16868C00306D52868800318
:1032B00038D5606800286FD034E06068B0F5803F92
:1032C0000BD010B1B0F5A02F11D0286820F48030B9
:1032D0002860286820F4802002E0286840F48030CC
:1032E0002860606888B1FFF7E3FC064609E02868BB
:1032F00040F480202860F0E7FFF7DAFC801B6428A8
:1033000075D828688003F7D50CE0FFF7D1FC064696
:1033100005E000BFFFF7CCFC801B6428F0D82868CC
:103320008003F7D42078944E80074FF001094FF0C6
:1033300000083BD5686810F00C0F07D06868C0F330
:103340008100022809D16868C00306D42868800774
:1033500014D5206901281FD110E02069B0B1C6F84A
:103360000090FFF7A5FC074605E000BFFFF7A0FCB3
:10337000C01B0228C4D828688007F7D5286861696F
:1033800020F0F80040EAC10028600FE0C6F8008095
:10339000FFF78EFC074606E0E9E000BFFFF788FC78
:1033A000C01B022823D828688007F7D4207800079C
:1033B0002CD57248A169D9B1C0F80090FFF778FC0C
:1033C000074604E0FFF774FCC01B02280FD8686AA8
:1033D0008007F7D56A484FF4FA510068B0FBF1F066
:1033E000009000BF0098411E0091FAD20EE080E0EC
:1033F000C0F80080FFF75CFC074604E0FFF758FCCC
:10340000C01B022875D8686A8007F7D42078400767
:1034100060D5E8690027C00008D4E86940F0805012
:10342000E861E869012700F0805000905548016884
:10343000C90513D40168834641F480710160FFF728
:1034400037FC824606E000BFFFF732FCA0EB0A0023
:1034500064284ED8DBF80000C005F5D5E0680128E7
:103460000AD008B1052813D0286A20F0010028628C
:10347000286A20F0040002E0286A40F00100286277
:10348000E06841F2883B98B1FFF712FC82460BE0FE
:10349000286A40F004002862EEE700BFFFF708FC4E
:1034A000A0EB0A0159455AD8286A8007F6D50CE0E6
:1034B000FFF7FEFB824605E0FFF7FAFBA0EB0A01EF
:1034C00059454CD8286A8007F6D41FB1E86920F026
:1034D0008050E861E06988B36968C1F3810102291D
:1034E00045D00228C6F8608004D0FFF7E1FB04460F
:1034F00038E034E0FFF7DCFB074604E0FFF7D8FBD9
:10350000C01B02282BD828688001F7D4206AB0F5A8
:10351000803F05D16868A16820F4003008436860E6
:10352000D4E908010843696821F47411084368600C
:10353000C6F86090FFF7BCFB044606E015E000BF4C
:10354000FFF7B6FB001B022809D828688001F7D5D1
:103550000BE000BFFFF7ACFB001B022802D90320E1
:10356000BDE8F88F28688001F4D40020F8E7012036
:10357000F6E7000000100240000042428004424290
:10358000000000200070004070B5040003D0607C93
:10359000002610B105E0012070BD2674204600F021
:1035A00043F802206074204600F058F8042578BBE8
:1035B000204604F087FC58BB2068416821F00701D1
:1035C0004160A06820B11748016821F00101016045
:1035D0001448001F0168A26821F460711143016062
:1035E0006068411C04D10120FFF740FC80B1401EFF
:1035F00021688A6822F00F0242EA10428A6021683C
:10360000CA6860F30F02CA60204604F075FC08B176
:103610006574C0E7E67301206073A07360740020D6
:1036200070BD0000306C004008B500680849884251
:103630000DD1FFF715FC0748C16941F00061C16178
:10364000C069054900F0006000900120086008BDD5
:1036500000280040001002403C04424270B50400C3
:103660000AD02068416821F008014160FFF720FB83
:1036700005464FF47A7608E0012070BDFFF718FB8D
:10368000401BB04201D9032070BD2068406800078C
:10369000F4D5002070BD70B5040005D00025A562EA
:1036A00094F8510010B104E0012070BD204600F0F4
:1036B00033F8022084F851002068016821F04001AD
:1036C0000160D4E901010843D4E90312114308431E
:1036D00061690843218B01F400710843E1690843E3
:1036E000216A0843A16A084321680860A06904218F
:1036F00001EA1040616A0843216848602168E06A75
:1037000008612068C16921F40061C161656501201B
:1037100084F85100002070BD10B50068124986B0D1
:1037200088421FD11148C16941F48041C161C0691B
:103730000F4C00F4804004904FF420400090022091
:1037400001900320039069462046FFF7AFF94FF43C
:1037500080400090002001900120029069462046A0
:10376000FFF7A4F906B010BD003800400010024079
:10377000000C01402DE9F84F044690F85000002657
:103780000A9F9A4693460D464FF0010801280ED035
:10379000012084F85000FFF78BFA814694F851001D
:1037A000616801280CD0B1F5827F07D102E00220C8
:1037B000BDE8F88FA16809B9042801D00226BDE050
:1037C00055B1BBF1000F07D0BAF1000F04D094F847
:1037D0005100012802D004E00126AFE0052084F862
:1037E000510000206065C4F838B0A4F83EA0A4F8E9
:1037F0003CA02563A4F836A0A4F834A0206460643B
:1038000020680168490603D4016841F04001016065
:10381000E068B0F5006F606804D0E8B3E08E01287E
:103820003BD06AE010B1E08E01282ED1216835F836
:10383000020BC860E08E401EE08626E0B8F1000F63
:103840000DD0E08E58B120688168890707D535F81A
:10385000021BC160E08E401EE0864FF00008E08F42
:1038600058B120688168C90707D0C0682BF8020BDF
:10387000E08F401EE0874FF00108781C05D0FFF76D
:1038800017FAA0EB0900B84246D2E08E0028D5D145
:10389000E08F0028D2D136E0FFE7216815F8010B50
:1038A0000873E08E401EE08627E000BFB8F1000FED
:1038B0000DD0E08E58B120688168890707D515F8CA
:1038C000011B0173E08E401EE0864FF00008E08F80
:1038D00058B120688168C90707D0C0680BF8010B90
:1038E000E08F401EE0874FF00108781C05D0FFF7FD
:1038F000DFF9A0EB0900B8420ED2E08E0028D5D146
:10390000E08F0028D2D13B46012202212046CDF88B
:10391000009004F0C3FE08B103260FE04A46394682
:10392000204604F0ABFE18B101262020606505E0BA
:10393000A06818B92068C16880680090012084F8E8
:103940005100002084F85000304631E74FF0E0216C
:103950000428086903D020F004000861704740F093
:103960000400FAE710B5401EB0F1807F01D30120BA
:1039700010BD4FF0E02460610F21601703F030F9B3
:103980000020A06107202061002010BD7047704713
:1039900010B5040003D094F83D0010B107E00120F9
:1039A00010BD002084F83C00204600F00CF80220F6
:1039B00084F83D00211D206805F04AFE012084F8AE
:1039C0003D00002010BD70470168CA6842F0010246
:1039D000CA600068016841F0010101600020704781
:1039E000704770B50446006801694FF00005C9438F
:1039F000890715D4C168C943890711D4E91E01613B
:103A000001202077206880698007204602D0FFF7D8
:103A1000E7FF04E000F098F8204600F096F82577DC
:103A200020680169C943490717D4C168C9434907D8
:103A300013D46FF0040101610220207720688069AF
:103A400010F4407F204602D0FFF7CAFF04E000F0E8
:103A50007BF8204600F079F8257720680169C94392
:103A6000090716D4C168C943090712D46FF00801C9
:103A70000161042020772068C0698007204602D0B9
:103A8000FFF7AEFF04E000F05FF8204600F05DF8BD
:103A9000257720680169C943C90617D4C168C9439D
:103AA000C90613D46FF01001016108202077206847
:103AB000C06910F4407F204602D0FFF791FF04E078
:103AC00000F042F8204600F040F8257720680169B0
:103AD000C943C90708D1C168C943C90704D1891EB0
:103AE0000161204600F032F820680169C9430906E7
:103AF00009D4C168C943090605D46FF0800101618A
:103B00002046FFF743FF20680169C943490609D4ED
:103B1000C168C943490605D46FF0400101612046E0
:103B200000F01EF820680169C94389060BD4C168FA
:103B3000C943890607D46FF0200101612046BDE822
:103B40007040FFF724BF70BD70477047006803499D
:103B5000884201D1FFF7B2B8704700000010004062
:103B6000704770B5040004D094F83900002510B1F6
:103B700006E0012070BD84F83850204600F022F89D
:103B8000242084F839002068C16821F40051C16004
:103B9000204605F061FE2068016921F49041016131
:103BA0002068416921F02A0141612068C16841F41F
:103BB0000051C160E563202084F8390084F83A00A0
:103BC000002070BDF0B53549334DD0F800C0002459
:103BD0000E1502220323324885B0AC4510D1CD69C1
:103BE00045F40025CD61C969054601F40021CDE900
:103BF0000331CDE900626946FEF758FF700045E0E9
:103C0000284D0427AC4517D1CD6945F48015CD6109
:103C1000C969039301F480110491B902CDE900123E
:103C20006946FEF743FFCDE9007469461E480294D9
:103C3000FEF73CFF05B0F0BD1C481D4D844512D178
:103C4000886940F4804088618869694600F4804052
:103C500004906815CDE9000203932846FEF726FF7D
:103C6000CDE9006414E013488445E3D1C86940F409
:103C70000030C861C869694600F40030CDE90330FE
:103C8000CDE900722846FEF711FF0820CDE90004B7
:103C9000694628460294CBE7004C004000100240E1
:103CA0000010014000500040001401400038014065
:103CB000000801400044004000F00F000A2801D332
:103CC0003730704730307047FEE700007EB502465F
:103CD0000C464448B2FBF0F0C0B28DF800004148F9
:103CE000B2FBF0F300FB13223F48B2FBF0F0C0B28E
:103CF0008DF801003C48B2FBF0F300FB13223B4877
:103D0000B2FBF0F0C0B28DF802003848B2FBF0F31D
:103D100000FB13223648B2FBF0F0C0B28DF803006E
:103D20003348B2FBF0F300FB13223248B2FBF0F051
:103D3000C0B28DF804002F48B2FBF0F300FB132251
:103D400042F21070B2FBF0F0C0B28DF8050042F202
:103D50001070B2FBF0F300FB13224FF47A70B2FB49
:103D6000F0F0C0B28DF806004FF47A70B2FBF0F3B9
:103D700000FB13226420B2FBF0F0C0B28DF8070004
:103D80006420B2FBF0F300FB13220A20B2FBF0F038
:103D9000C0B28DF808000A20B2FBF0F300FB13203C
:103DA0008DF80900002101E0481CC1B21DF8010096
:103DB00008B90929F8D3002310E0092907DC0D46CA
:103DC0004E1CF1B21DF80500FFF776FF00E0002061
:103DD000E0540020E5186870581CC3B2092BECDDD4
:103DE0007EBD000000CA9A3B00E1F5058096980070
:103DF00040420F00A0860100A0F13001092901D83E
:103E0000C8B27047A0F16101052901D8573804E014
:103E1000A0F14101052902D83738C0B27047FF2010
:103E2000704700002DE9F04F06462E48DFF8B8B085
:103E30002E4C007885B01F46154688464FF0010984
:103E40004FF0000A01280AD0C4F824A028480078BE
:103E5000012826D0C4F828A005B0BDE8F08F606A1C
:103E6000642802D2401C606200E0002060620028EA
:103E7000ECD13068A84201D3084600E0401C02A9FA
:103E80003060FFF723FFCDE900B904230B220121A5
:103E900002A806F023FC102006F046FC87F80090EC
:103EA000D4E7A06A642802D2401CA06200E000208F
:103EB000A0620028D0D13068404500D9451E284670
:103EC00002A93560FFF702FFCDE900B94C46042393
:103ED0000B22012102A806F001FC102006F024FCB0
:103EE0003C70B9E78C050020BDB50008180600201D
:103EF0008D0500202DE9F0430646007889B00D4677
:103F000008285ED130484FF00009CDE900902F48D5
:103F100002902F4803902F4804902D488038059038
:103F20002D4806902D4807900846FDF76DF91F278C
:103F3000E846002455F8240007F062FA410058F8DA
:103F40002400F84000F00100084307F059FA45F852
:103F50002400641CE4B2082CECD33078082830D15B
:103F6000642007F02BFB7F1E7FB2002FE1DA1C4894
:103F70000122CDE9009002AB1A4983E80700CDE9A0
:103F800005101F270790002455F8240007F038FA81
:103F9000410058F82400F84000F00100084307F001
:103FA0002FFA45F82400641CE4B2082CECD33078D6
:103FB000082806D1642007F001FB7F1E7FB2002F86
:103FC000E1DA09B0BDE8F083943C8EE39424519487
:103FD0009224419471244EE4947E519464428EE381
:103FE00004000040020000802DE9F04305460078FF
:103FF00089B00C4611287CD192484FF00009CDE9D8
:104000000090914891490290CDE9030105909048B4
:104010000690904807902046FDF7F6F81F27E846DF
:104020005FF0000654F8260007F0EAF9410058F85E
:104030002600F84000F00100084307F0E1F944F8D9
:104040002600761CF6B2082EECD32878112850D121
:10405000462007F0B3FA7F1E7FB2002FE0DA7E48D9
:10406000CDE900907D4802907D4803907D48049002
:104070007D4805907948233006907C481F2707909B
:104080005FF0000654F8260007F0BAF9410058F82E
:104090002600F84000F00100084307F0B1F944F8A9
:1040A0002600761CF6B2082EECD32878112820D1F1
:1040B000462007F083FA7F1E7FB2002FE0DA6C48BB
:1040C0006E49CDE900906B4802906B48CDE9030141
:1040D00005906B4806906B481F2707905FF000061D
:1040E00054F8260007F08CF9410058F82600F840F3
:1040F00000E08BE000F00100084307F081F944F88C
:104100002600761CF6B2082EEAD3287811287DD135
:10411000462007F053FA7F1E7FB2002FDEDA5A489E
:10412000CDE90090594802905948039059480490AD
:10413000594805905548DF30069058481F2707908A
:104140005FF0000654F8260007F05AF9410058F8CD
:104150002600F84000F00100084307F051F944F848
:104160002600761CF6B2082EECD32878112866D1EA
:10417000462007F023FA7F1E7FB2002FE0DA48487E
:10418000CDE9009047480290474803904748049083
:104190004748059043481D38069046481F2707901A
:1041A0005FF0000654F8260007F02AF9410058F89D
:1041B0002600F84000F00100084307F021F944F818
:1041C0002600761CF6B2082EECD32878112836D1BA
:1041D000462007F0F3F97F1E7FB2002FE0DA364861
:1041E0001F27CDE9009035480290354803903548A7
:1041F00004903548059035480690354807900026CC
:1042000054F8260007F0FCF8410000E017E058F8E9
:104210002600F84000F00100084307F0F1F844F8E8
:104220002600761CF6B2082EEAD32878112806D18B
:10423000462007F0C3F97F1E7FB2002FDFDA09B0F6
:10424000BDE8F0837991C7F94291248A7A9F248A44
:1042500042D12F8A7951C889E2E17D91050111513E
:1042600008011113C8E111152F011119C8E11191AD
:10427000649C93229552A4228652C4A2845C84BE7C
:104280009552A4A2649C93A28E4830A5495148251A
:10429000296248252E42C81DE8634805284A3099FE
:1042A000C221217D2541211128812111CF01E11059
:1042B000088121100821C11018433824A4A4242403
:1042C000201425A41813399C84F02184A41421A45B
:1042D000181321982DE9F0418046007888B00E46E9
:1042E000092809D00A2807D00B2805D00C2803D0AC
:1042F0000D2801D00E283BD1002000901E480190CF
:104300001E4802900390049005901D4806901D4899
:1043100007900846FCF778FF1F256F465FF0000402
:1043200056F8240007F06CF8410057F82400E840E4
:1043300000F00100084307F063F846F82400641C0D
:10434000E4B2082CECD398F80000092809D00A2818
:1043500007D00B2805D00C2803D00D2801D00E283B
:1043600006D1642007F02AF96D1E6DB2002DD5DA52
:1043700008B0BDE8F081000000C0E73800401449F3
:10438000004014FD0040E4842DE9F0430646007827
:1043900089B00D46042862D132484FF00009CDE9BA
:1043A00000903148029032493048CDE9030131494B
:1043B000CDE90510304807902846FCF725FF1F2758
:1043C000E846002455F8240007F01AF8410058F890
:1043D0002400F84000F00100084307F011F845F808
:1043E0002400641CE4B2082CECD33078042836D1C5
:1043F000642007F0E3F87F1E7FB2002FE1DACDF8EA
:104400000090CDF80490CDF80890CDF80C90CDF840
:104410001090CDF81490CDF818901F27CDF81C906F
:104420005FF0000455F8240006F0EAFF410058F858
:104430002400F84000F00100084306F0E1FF45F8D1
:104440002400641CE4B2082CECD33078042806D194
:10445000642007F0B3F87F1E7FB2002FE0DA09B0C6
:10446000BDE8F0830010D1FB0028118A0044118AB6
:104470000044DF8B007C118A0044D18B2DE9F0438E
:104480000646007889B00D46062862D14FF0000933
:1044900032493148CDF80090CDE90101304903910E
:1044A0003049049105913049CDE906102846FCF7C2
:1044B000ABFE1F27E846002455F8240006F0A0FFB5
:1044C000410058F82400F84000F00100084306F0CD
:1044D00097FF45F82400641CE4B2082CECD3307834
:1044E000062836D1642007F069F87F1E7FB2002FBE
:1044F000E1DACDF80090CDF80490CDF80890CDF831
:104500000C90CDF81090CDF81490CDF818901F278E
:10451000CDF81C905FF0000455F8240006F070FF01
:10452000410058F82400F84000F00100084306F06C
:1045300067FF45F82400641CE4B2082CECD3307803
:10454000062806D1642007F039F87F1E7FB2002FBD
:10455000E0DA09B0BDE8F083709CC87188A22D8AAA
:1045600080A20A8A80A2088A88A2288A2DE9F043BC
:104570000546007889B00C4601287DD1FF484FF0F0
:104580000009CDE90090FE480290FE480390FE48E5
:104590000490FE480590FE480690FE4807900846A5
:1045A000FCF732FE1F27E8465FF0000654F82600AD
:1045B00006F026FF410058F82600F84000F0010000
:1045C000084306F01DFF44F82600761CF6B2082EBC
:1045D000ECD3287801284FD1462006F0EFFF7F1E4C
:1045E0007FB2002FE0DACDF80090CDF80490CDF83E
:1045F0000890CDF80C90CDF81090CDF81490CDF82F
:1046000018901F27CDF81C905FF0000654F8260084
:1046100006F0F6FE410058F82600F84000F00100D0
:10462000084306F0EDFE44F82600761CF6B2082E8C
:10463000ECD3287801281FD1462006F0BFFF7F1E4B
:104640007FB2002FE0DAD448CDE90090D348029041
:10465000D24840380390D2480490D2480590D248BE
:104660000690D2481F2707905FF0000654F82600F6
:1046700006F0C6FE410000E08EE058F82600F84043
:1046800000F00100084306F0BBFE44F82600761C4B
:10469000F6B2082EEAD3287801287DD1462006F00C
:1046A0008DFF7F1E7FB2002FDEDAC148CDE900907A
:1046B000C0480290C0480390C0480490C04805908C
:1046C000C0480690BF4870301F2707905FF0000673
:1046D00054F8260006F094FE410058F82600F840F1
:1046E00000F00100084306F08BFE44F82600761C1B
:1046F000F6B2082EECD3287801284DD1462006F0DA
:104700005DFF7F1E7FB2002FE0DAAF481F27CDE9A3
:104710000090AE480290AE480390AE480490AE4878
:104720000590AE480690AE480790002654F8260043
:1047300006F066FE410058F82600F84000F001003F
:10474000084306F05DFE44F82600761CF6B2082EFB
:10475000ECD3287801281FD1462006F02FFF7F1EBA
:104760007FB2002FE1DA9F481F27CDE900909E48D5
:1047700002909E4803909E4804909E4805909E4853
:10478000069007905FF0000654F8260006F038FE09
:10479000410058F8260000E08BE0F84000F00100EE
:1047A000084306F02DFE44F82600761CF6B2082ECB
:1047B000EAD3287801287CD1462006F0FFFE7F1E30
:1047C0007FB2002FDEDA8D488E49CDE900908C480B
:1047D000CDE902018C4904918C49CDE905108C4842
:1047E0001F2707905FF0000654F8260006F008FE29
:1047F000410058F82600F84000F00100084306F098
:10480000FFFD44F82600761CF6B2082EECD328787B
:1048100001284ED1462006F0D1FE7F1E7FB2002F28
:10482000E0DA7C481F27CDE900907B4802907B4866
:1048300003907B4804907B4805907B4806907B481A
:104840000790002654F8260006F0DAFD410058F8DB
:104850002600F84000F00100084306F0D1FD44F8BE
:104860002600761CF6B2082EECD32878012820D139
:10487000462006F0A3FE7F1E7FB2002FE1DA6C48CF
:104880006D49CDE900906B48CDE902016B49049177
:104890006B49CDE905106B481F2707905FF00006B4
:1048A00054F8260006F0ACFD410058F82600F84008
:1048B00000E061E000F00100084306F0A1FD44F8CB
:1048C0002600761CF6B2082EEAD32878012853D1A8
:1048D000462006F073FE7F1E7FB2002FDEDA5A48B4
:1048E0001F27CDE900905948029059480390594834
:1048F0000490594805905948069059480790002659
:1049000054F8260006F07CFD410058F82600F840D7
:1049100000F00100084306F073FD44F82600761C01
:10492000F6B2082EECD32878012825D1462006F0CF
:1049300045FE7F1E7FB2002FE1DA4A481F27CDE9EE
:1049400000904948029049480390494804904948DA
:1049500005904948069049480790002654F82600DB
:1049600006F04EFD410058F82600F84000F0010026
:10497000084306F045FD83E00AE10000803089F835
:1049800040494989200A298A2012278AE00BE18BB5
:10499000204A298A2032268A8E83F37851849448CB
:1049A0001184934811849148518492FC8E8314851C
:1049B000F422C2458422254584A22829F7BEC811C5
:1049C00084A20F2984A20845F038385191444851F7
:1049D00092404853924038D593401859FA4528518F
:1049E0000A394851E43E44899422444994224C298E
:1049F000E522542F862264E1842244215F54394FFA
:104A000044544549C4E444C94445444944E64449FE
:104A100044543951FA1C91782292A2402252C44047
:104A2000215C847820D0C7402250A4402150947843
:104A3000F4A2272184A2442184A68421F7AA04E1B8
:104A400084B28421F4A228C11C24105F22282844A7
:104A500020304444202044C420307C442228444454
:104A60001C244444E1425F94924244949442C4948E
:104A7000E47244F5974A4416944A4414E472441488
:104A800044F82600761CF6B2082EFFF467AF2878AB
:104A900001287DD1462006F091FD7F1E7FB2002FB8
:104AA000BFF65BAFD448D749CDE90090D348029018
:104AB000D348CDE90301D449CDE90510D3481F27D8
:104AC0000790002654F8260006F09AFC410058F89A
:104AD0002600F84000F00100084306F091FC44F87D
:104AE0002600761CF6B2082EECD3287801284FD188
:104AF000462006F063FD7F1E7FB2002FE1DAC44836
:104B0000CDE90090C3480290C24808380390C248DB
:104B10000490C2480590C2480690C2481F270790DB
:104B20005FF0000654F8260006F06AFC410058F8D1
:104B30002600F84000F00100084306F061FC44F84C
:104B40002600761CF6B2082EECD3287801281FD157
:104B5000462006F033FD7F1E7FB2002FE0DAB24818
:104B60001F27CDE90090B1480290B1480390B148A9
:104B70000490B1480590B1480690B14807900026CE
:104B800054F8260006F03CFC410058F8260000E0EE
:104B90008BE0F84000F00100084306F031FC44F8D7
:104BA0002600761CF6B2082EEAD3287801287CD19C
:104BB000462006F003FD7F1E7FB2002FDFDAA148FA
:104BC0001F27CDE90090A0480290A0480390A0487C
:104BD0000490A0480590A0480690A04807900026A1
:104BE00054F8260006F00CFC410058F82600F84066
:104BF00000F00100084306F003FC44F82600761C90
:104C0000F6B2082EECD3287801284ED1462006F0C3
:104C1000D5FC7F1E7FB2002FE1DA91481F27CDE936
:104C200000909048029090480390904804909048DB
:104C300005909048069090480790002654F826006A
:104C400006F0DEFB410058F82600F84000F00100B5
:104C5000084306F0D5FB44F82600761CF6B2082E71
:104C6000ECD32878012820D1462006F0A7FC7F1E2F
:104C70007FB2002FE1DA81481F27CDE900908048FC
:104C800002908048039080480490804805908048B6
:104C9000069007905FF0000654F8260006F0B0FB7F
:104CA000410058F82600F84000E08BE000F00100D9
:104CB000084306F0A5FB44F82600761CF6B2082E41
:104CC000EAD3287801287DD1462006F077FC7F1EA4
:104CD0007FB2002FDEDA6F481F27CDE900906E48C3
:104CE00002906E4803906E4804906E4805906E489E
:104CF00006906E480790002654F8260006F080FBC8
:104D0000410058F82600F84000F00100084306F082
:104D100077FB44F82600761CF6B2082EECD32878F0
:104D2000012866D1462006F049FC7F1E7FB2002F85
:104D3000E1DA5F481F27CDE900905E4802905E48A7
:104D400003905E4804905E4805905E4806905E4879
:104D50000790002654F8260006F052FB410058F850
:104D60002600F84000F00100084306F049FB44F833
:104D70002600761CF6B2082EECD32878012838D10C
:104D8000462006F01BFC7F1E7FB2002FE1DACDF833
:104D90000090CDF80490CDF80890CDF80C90CDF8A7
:104DA0001090CDF81490CDF818901F27CDF81C90D6
:104DB0005FF0000654F8260006F022FB410058F888
:104DC000260000E015E0F84000F00100084306F07E
:104DD00017FB44F82600761CF6B2082EEAD3287892
:104DE000012806D1462006F0E9FB7F1E7FB2002F86
:104DF000DEDA09B0BDE8F08380E9791F402A4184FA
:104E0000402A4144402E7944402A41C480297A44B2
:104E100006E7F1000929910006279100012391007E
:104E20000925F90106290A014B72CF114A4A28299E
:104E30004A4A28454B72CF454A42287D4A42284576
:104E4000FB43CF45EFE144D10821451108214D1125
:104E5000CFE154DF2861641128A14411CF2145D14D
:104E600012E1313092224948522441085E244130F7
:104E7000C2E7410842144A4842143230514544883E
:104E80005BA544889513459811117DA891F345C8F9
:104E9000511545887C85F745440544444500444CFC
:104EA0004580475445004464450044444580474498
:104EB000002A9944002AA5A40020851400E0981334
:104EC000002084F00020A51400C018132DE9F04341
:104ED0000646007889B00C46022801D010287DD102
:104EE0004D484FF00009CDE900904C4802900390E6
:104EF0004B4804904B480590801E06904848613806
:104F000007900846FCF780F91F27E8465FF0000588
:104F100054F8250006F074FA410058F82500F840CE
:104F200000F00100084306F06BFA44F825006D1C00
:104F3000EDB2082DECD33078022801D0102868D1CA
:104F4000642006F03BFB7F1E7FB2002FDEDA36487E
:104F5000CDE90090354802903548039035480490DB
:104F600035480590001D069034481F2707900025FE
:104F700054F8250006F044FA410058F82500F8409E
:104F800000F00100084306F03BFA44F825006D1CD0
:104F9000EDB2082DECD33078022801D0102838D19A
:104FA000642006F00BFB7F1E7FB2002FDFDA25495D
:104FB0002348CDF80090CDE901012349039123490D
:104FC00004912349CDE905101F2707905FF00005E4
:104FD00054F8250006F014FA410000E019E058F8F2
:104FE0002500F84000F00100084306F009FA44F8F3
:104FF00025006D1CEDB2082DEAD33078022801D0CF
:10500000102806D1642006F0D9FA7F1E7FB2002F47
:10501000DCDA09B0BDE8F083E4DE17F29410148AFC
:10502000E59E97F38650548AC973785F094A4044D5
:10503000054A40C4C373784405424044C943784498
:105040000000A1280000B3280000AD490000A18A9B
:105050000000A14C2DE9F0430546007889B00C46CC
:1050600012287DD191484FF00009CDE90090904879
:10507000029003908F4804908F480590801E069000
:105080008C48613807900846FCF7BEF81F27E846B1
:105090005FF0000654F8260006F0B2F9410058F817
:1050A0002600F84000F00100084306F0A9F944F892
:1050B0002600761CF6B2082EECD3287812284FD1A1
:1050C000462006F07BFA7F1E7FB2002FE0DA7B4895
:1050D000CDE900907A4802907A4803907A4804908B
:1050E0007A480590001D069079481F2707900026F2
:1050F00054F8260006F084F9410058F82600F840DC
:1051000000F00100084306F07BF944F82600761C05
:10511000F6B2082EECD32878122821D1462006F0CA
:105120004DFA7F1E7FB2002FE1DA6A48CDE9009088
:10513000694802906948039069480490694805905D
:105140006448C01E0690001D1F2707905FF00006F0
:1051500054F8260006F054F9410058F8260000E003
:105160008BE0F84000F00100084306F049F944F8EC
:105170002600761CF6B2082EEAD3287812287CD1B5
:10518000462006F01BFA7F1E7FB2002FDEDA56485B
:1051900001AB5649564ACDF8009083E80700554ABE
:1051A0000492CDE90610544A1F2705925FF00006CD
:1051B00054F8260006F024F9410058F82600F8407B
:1051C00000F00100084306F01BF944F82600761CA5
:1051D000F6B2082EECD32878122864D1462006F0C7
:1051E000EDF97F1E7FB2002FE0DA44484549CDE952
:1051F00000904348CDE90201434904914349CDE978
:10520000051043481F2707905FF0000654F826005A
:1052100006F0F6F8410058F82600F84000F00100CA
:10522000084306F0EDF844F82600761CF6B2082E86
:10523000ECD32878122836D1462006F0BFF97F1E1D
:105240007FB2002FE0DA33483549CDE9009032488B
:1052500002903248CDE903013249CDE905103248C8
:105260001F2707905FF0000654F8260006F0C8F8E4
:10527000410058F82600F84000E014E000F001007A
:10528000084306F0BDF844F82600761CF6B2082E56
:10529000EAD32878122806D1462006F08FF97F1E1F
:1052A0007FB2002FDEDA09B0BDE8F083E4DE17F24A
:1052B0009410148AE59E97F38650548AC973785FD8
:1052C000094A4044054A40C4C373784405424044F7
:1052D000C94378442702A1282402B3286402AD49B7
:1052E000A402A18A2403A14CCE8B1CA2118A12A273
:1052F000108A12A6D0FB1CAA108A12B29F83F7450F
:10530000510444445104444C51844754510444646E
:105310009183474400D2473C0012A124001211257A
:10532000000EF12500021125000C11452DE9F04376
:105330000646007889B00C460F287DD17A484FF098
:105340000009CDE9009079480290039078480490D4
:1053500078480590801E0690754861380790084689
:10536000FBF752FF1F27E8465FF0000554F82500C1
:1053700006F046F8410058F82500F84000F001001A
:10538000084306F03DF844F825006D1CEDB2082DE9
:10539000ECD330780F284FD1642006F00FF97F1E30
:1053A0007FB2002FE0DA6448CDE9009063480290B4
:1053B0006348039063480490634805905F480A3847
:1053C000069062481F2707905FF0000554F82500FB
:1053D00006F016F8410058F82500F84000F00100EA
:1053E000084306F00DF844F825006D1CEDB2082DB9
:1053F000ECD330780F281FD1642006F0DFF87F1E31
:105400007FB2002FE0DA5248CDE900905148029077
:105410005148039051480490514805904C48801CD5
:10542000069050481F2707905FF0000554F82500AC
:1054300005F0E6FF410000E073E058F82500F84071
:1054400000F00100084305F0DBFF44F825006D1C67
:10545000EDB2082DEAD330780F2862D1642006F02F
:10546000ADF87F1E7FB2002FDEDA3F48CDE9009015
:105470003E4802903E4803903E4804903E480590C6
:105480003E480690C01D1F270790002554F82500B0
:1054900005F0B6FF410058F82500F84000F0010083
:1054A000084305F0ADFF44F825006D1CEDB2082D52
:1054B000ECD330780F2834D1642006F07FF87F1EBB
:1054C0007FB2002FE1DA2E4801AD2E494FF00B627A
:1054D0004FF00A63CDF8009085E80F00CDE9061083
:1054E0001F2705925FF0000554F8250005F088FF9E
:1054F000410058F82500F84000F00100084305F08D
:105500007FFF44F825006D1CEDB2082DECD33078F8
:105510000F2806D1642006F051F87F1E7FB2002FBD
:10552000E0DA09B0BDE8F083E4DE17F29410148AE3
:10553000E59E97F38650548A5132785F5B4A404427
:10554000554240C4D141784451404044913178445F
:10555000881021458910216D8A302155FB50E14486
:105560008A9021448A10C144EF8BA28A8888B64A67
:1055700088982A278FA822E288C822278888A22A0A
:10558000000024070000A8082DE9F0430646007833
:1055900089B00D46072864D133484FF00009CDE9A2
:1055A0000090324802903148083803903048049007
:1055B000304805902F48083006902F48079008463D
:1055C000FBF722FE1F27E8465FF0000455F8240091
:1055D00005F016FF410058F82400F84000F00100E3
:1055E000084305F00DFF45F82400641CE4B2082CC4
:1055F000ECD33078072834D1642005F0DFFF7F1E1C
:105600007FB2002FE0DA4FF020504FF047414FF0CB
:105610002252CDE90220CDE9009104900791CDE915
:1056200005021F275FF0000455F8240005F0E8FE8E
:10563000410058F82400F84000F00100084305F04C
:10564000DFFE45F82400641CE4B2082CECD330786B
:10565000072806D1642005F0B1FF7F1E7FB2002F1E
:10566000E0DA09B0BDE8F08371DE13FA8A50128ADD
:10567000825E928B8250528A715E948B2DE9F04348
:105680000646007889B00D46032864D133484FF0B0
:105690000009CDE900903248029032480390324828
:1056A00004903248059032480690324807900846E8
:1056B000FBF7AAFD1F27E8465FF0000455F8240019
:1056C00005F09EFE410058F82400F84000F001006B
:1056D000084305F095FE45F82400641CE4B2082C4C
:1056E000ECD33078032836D1642005F067FF7F1EA5
:1056F0007FB2002FE0DACDF80090CDF80490CDF81D
:105700000890CDF80C90CDF81090CDF81490CDF80D
:1057100018901F27CDF81C905FF0000455F8240066
:1057200005F06EFE410058F82400F84000F001003A
:10573000084305F065FE45F82400641CE4B2082C1B
:10574000ECD33078032806D1642005F037FF7F1EA4
:105750007FB2002FE0DA09B0BDE8F0830084C3F126
:10576000008A248A0091248A009124F2009F248ACE
:1057700000D12F8A0051C8F12DE9F0430646007888
:1057800089B00D46052860D14FF00009304801ACC2
:105790003049314A314BCDF8009084E80F00CDE913
:1057A000061005922846FBF72FFD1F27E846002428
:1057B00055F8240005F024FE410058F82400F84074
:1057C00000F00100084305F01BFE45F82400641CAE
:1057D000E4B2082CECD33078052836D1642005F0EB
:1057E000EDFE7F1E7FB2002FE1DACDF80090CDF8FC
:1057F0000490CDF80890CDF80C90CDF81090CDF82D
:105800001490CDF818901F27CDF81C905FF000047D
:1058100055F8240005F0F4FD410058F82400F84044
:1058200000F00100084305F0EBFD45F82400641C7E
:10583000E4B2082CECD33078052806D1642005F0BA
:10584000BDFE7F1E7FB2002FE0DA09B0BDE8F08315
:105850000024C7F100A8288A0030288A002028F2F6
:1058600010B5142000F0E0F8800705D10321BDE851
:105870001040142000F023B910BD7CB5044600256B
:1058800029460D2000F0F3F993202070202060704D
:1058900001A823460090022219460C2000F01BF9B3
:1058A000010009D1225C401C5540C0B20428F9D344
:1058B000205CA84200D0022108467CBD30B585B0EE
:1058C0008DF804008DF80510002001A9145C0D1856
:1058D000401CC0B2AC700628F8D300200C181A5C2B
:1058E000401CC0B222720428F8D304A800900B46D2
:1058F0000C220E2000F0EFF8040004D1082000F084
:1059000093F8000700D4022405B0204630BD2DE9ED
:10591000F0410E46074615460421052000F026F802
:1059200080210A2000F0CBF8002405E0395D092031
:1059300000F09DF9641CE4B2B442F7D303210120C6
:1059400000F095F9FF24052000F06EF8641E14F0B5
:10595000FF0401D04007F6D5222000F065F828703A
:10596000212000F061F86870BDE8F08170B50C4648
:10597000054600F059F820EA04012846BDE87040C9
:1059800000F075B90EB550208DF8040000208DF898
:1059900005000DF10602022101A8FFF7B8FF02A8D9
:1059A00001AB0090042219460C2000F094F80EBDC3
:1059B00010B500F057F88D212A2000F058F93E214B
:1059C0002B2000F054F91E212D2000F050F9002169
:1059D0002C2000F04CF94821262000F048F9402105
:1059E000152000F044F93D21112000F040F9BDE8F8
:1059F0001040FFF735BF1CB50C4630212170607098
:105A0000A21C02212046FFF782FF01A82346009036
:105A1000042219460C2000F05EF818B9BDF80410F5
:105A2000902900D002201CBD7E2101EA400040F0F8
:105A3000800002F0EDBD7CB50C46054607210D2027
:105A400000F015F9257001A823460090012219469F
:105A50000C2000F040F818B9BDF80410102900D04F
:105A600002207CBD0F21012000F001B910B586B0E5
:105A700093218DF8041070218DF80510002101AAE2
:105A8000435C5418491CC9B2A3700529F8D30721F7
:105A900001A8D21DFFF73BFF04A801AB009009222B
:105AA00019460C2000F017F818B9BDF81000182896
:105AB00002D0002006B010BD9DF80400FAE770B5D2
:105AC0000C460546FFF7B0FF40EA04012846BDE852
:105AD000704000F0CCB82DE9FF5F00270226DDF80A
